:020000040800F2
:1000000000000220FD0F0008451000084510000800
:1000100045100008451000084510000800000000C9
:100020000000000000000000000000004510000873
:1000300045100008000000004510000845100008A9
:1000400000000000000000000000000000000000B0
:1000500000000000000000000000000000000000A0
:100060000000000000000000000000000000000090
:100070000000000000000000000000000000000080
:100080000000000000000000000000000000000070
:100090000000000000000000000000000000000060
:1000A0000000000000000000000000000000000050
:1000B0000000000000000000000000000000000040
:1000C0000000000000000000000000000000000030
:1000D0000000000000000000000000000000000020
:1000E0000000000000000000000000000000000010
:1000F0000000000000000000000000000000000000
:1001000000000000000000000000000000000000EF
:1001100000000000000000000000000000000000DF
:1001200000000000000000000000000000000000CF
:1001300000000000000000000000000000000000BF
:1001400000000000000000000000000000000000AF
:10015000000000000000000000000000000000009F
:10016000000000000000000000000000000000008F
:10017000000000000000000000000000000000007F
:08018000000000000000000077
:100188000348044B834202D0034B03B1184770471E
:100198003004002030040020000000000548064913
:1001A8000B1AD90F01EBA301491002D0034B03B17D
:1001B8001847704730040020300400200000000079
:1001C80010B5064C237843B9FFF7DAFF044B13B197
:1001D8000448AFF300800123237010BD30040020D1
:1001E800000000005C10000808B5044B1BB104496E
:1001F8000448AFF30080BDE80840CFE700000000E6
:10020800340400205C100008002301461A461846F2
:1002180000F03EB838B50A4C0A4D641BA4100AD049
:1002280004F18043013B05EB8305013C55F8043993
:100238009847002CF9D1BDE8384000F011BF00BF45
:100248009C1000089810000870B50D4E0D4D761BD7
:10025800B61006D00024013455F8043B9847A6424E
:10026800F9D1094E094D761B00F0F4FEB61006D000
:100278000024013455F8043B9847A642F9D170BDD3
:1002880090100008901000089810000890100008BE
:10029800F0B4184C2568D5F8484114B365681F2D8B
:1002A80024DC38B9AB1C0135656044F82310002004
:1002B800F0BC704704EB85060127C6F8882007FACA
:1002C80005F2D4F88871022847EA0207C4F8887151
:1002D800C6F80831E6D1D4F88C311A43C4F88C2119
:1002E800E0E705F5A674C5F84841D7E74FF0FF30B9
:1002F800DEE700BF8410000813B50024019400F065
:1003080023FAADF80040BDF800309BB2312B0ED96E
:1003180000F022FA01AA0421722000F039F90198AC
:1003280040F6C413C01A18BF012002B010BDADF8C2
:100338000240BDF802309BB2312B06D9BDF800301F
:1003480001339BB2ADF80030DDE7019B0133019327
:10035800BDF8023001339BB2ADF80230E9E713B5BE
:10036800044605238DF8073000F0EEF92378A3F151
:10037800A202534253418DF8073000F0EDF90DF118
:1003880007020121722000F003F99DF8070002B06E
:1003980010BD00007FB5154B044618689B88ADF862
:1003A8000C30012302908DF8073000F0CDF99DF84C
:1003B8000730611E02A80434002211F8016F10F8FA
:1003C800015BAE421CBF01220023A142F5D10AB154
:1003D8008DF8073000F0C0F90DF1070201217220F5
:1003E80000F0D6F89DF8070004B070BD881000082A
:1003F80007B500238DF8073000F0A6F900F0ACF936
:100408009DF80730022BFBD1722000F0BFF9422083
:1004180000F0BCF9522000F0B9F9452000F0B6F917
:10042800412000F0B3F94B2000F0B0F94F2000F064
:10043800ADF9552000F0AAF9542000F0A7F90A20D8
:1004480000F0A4F9002003B05DF804FB08B500F043
:1004580005F900F01DF900F057F9722000F096F93F
:10046800522000F093F9452000F090F9532000F055
:100478008DF9452000F08AF9542000F087F92020F2
:1004880000F084F9202000F081F9202000F07EF9A6
:100498000A2000F07BF900F073F80B4A002167206E
:1004A80000F058F8094A0121632000F053F8084A7F
:1004B8000521702000F04EF8064A0021692000F05E
:1004C80049F800F085F8FCE7010300086703000815
:1004D8009D030008F903000801207047F0B50023C8
:1004E8004F1C834201DB002020E017F8135011F85D
:1004F8001340A5F13006F6B2092E0BD8D654A4F154
:100508003005EEB2092E14D8D45C44EA0514D4544C
:100518000133E6E7A5F14106052E02D8373DD5544B
:10052800EDE7A5F16106052E01D90120F0BD573D83
:10053800F5E7A4F14105052D02D8A4F13705E3E755
:10054800A4F16105052DF0D8D55C573C45EA0414A3
:10055800DDE7000030B5094D2B680F2B0BDC3F2978
:1005680009D80C2404FB0354C4E902120133207196
:100578002B60002030BD0120FCE700BF4C040020A8
:10058800024A00217620FFF7E5BF00BFE10400081A
:10059800F8B514460E4600F0F9F80C4F651EC4F184
:1005A800010463199E4204DCBDE8F8400A2000F00B
:1005B800EDB815F8013F1B09F85C00F0E7F82B7857
:1005C80003F00F03F85C00F0E1F8EAE774100008A4
:1005D8002DE9F041204DB2B000F0C6F82B68002498
:1005E8002A1D0C21A34207DC33D00C27002607FB69
:1005F80004570DF148080FE001FB04F6B65C86428B
:10060800F3D00134EEE700F0AFF80A2821D00D2826
:100618001FD006F808000136BB68B6EB430FF2D3CB
:1006280000F0A2F80A2801D00D2812D10C2303FBF0
:10063800045402AAA06812A9FFF750FF48B9E3685A
:1006480002A8984701AA8DF8040001217A20FFF733
:100658009FFF32B0BDE8F0814C04002010B592B085
:10066800002403224FF4A02306A8CDE90623099409
:100678000D9400F0A3F801230F21CDE9011301A87F
:100688000521CDE90344059400F02EFA12B010BDFF
:1006980030B5022389B04FF4C062CDE903230122AB
:1006A800CDE90523144C1548002507230195079328
:1006B800236B13432363236B1340019303A9019B0B
:1006C80000F0AAFA0E480F4902954FF41643C0E904
:1006D8000013C0E902550C23056185614361636C11
:1006E80043F010036364636C03F010030293029BEE
:1006F80000F080FB09B030BD003802400000024025
:1007080024050020001001407FB510220123CDE907
:10071800012300230222CDE903320093084B094844
:100728001A6B42F008021A631B6B03F0080300936C
:1007380001A9009B00F070FA07B05DF804FB00BF48
:1007480000380240000C024002480122102100F04B
:100758004BBB00BF000C024002480022102100F0F1
:1007680043BB00BF000C024013B5074C41F288336D
:1007780001220DF10701204600F0EFFB0028F5D11A
:100788009DF8070002B010BD2405002007B541F20E
:1007980088338DF8070001220DF10701024800F0A7
:1007A80097FB03B05DF804FB24050020024B186892
:1007B800421C1A60704700BF100500200368F7B597
:1007C800DC0701463BD40B68980700F189800B6869
:1007D8001B0700F1D4800B685F072AD5002301931B
:1007E8008F4B904C1A6C42F080521A641B6C03F0C9
:1007F80080530193019B236843F480732360FFF7C0
:10080800D5FF05462368DA0540F1DB808B68844C08
:10081800012B40F0DD80236F43F001032367FFF7CE
:10082800C5FF7F4D044641F288362B6F9B0740F188
:10083800F0808A69002A40F0FB80002015E0784BA0
:100848009A6802F00C02042A07D09A6802F00C0297
:10085800082A0CD15A68520209D5714B1B689B03B0
:10086800B1D54B68002BAED1012003B0F0BD4A686A
:10087800B2F5803F11D11A6842F480321A60FFF74E
:1008880095FF674D04462B689F039CD4FFF78EFFA6
:10089800001B6428F7D90320E7E7614CB2F5A02FC5
:1008A800236807D143F480232360236843F480330B
:1008B8002360E4E723F480332360236823F4802350
:1008C8002360002ADBD1FFF771FF054623689E03EA
:1008D8007FF579AFFFF76AFF401B6428F6D9DAE79E
:1008E8004F4B9A6812F00C0F07D09A6802F00C026E
:1008F800082A16D15B685D0213D4494B1A6894071D
:1009080002D5CA68012AAFD11C68F82292FAA2F26D
:10091800B2FA82F00A69824024F0F80002431A60B1
:1009280055E7CA68404BDAB101221A60FFF73EFF6B
:100938003B4C0546236898070CD52068F82393FAA2
:10094800A3F3B3FA83F20B69934020F0F802134340
:1009580023603CE7FFF72AFF401B0228EAD99AE701
:100968001A60FFF723FF2E4D04462B689A077FF580
:100978002EAFFFF71BFF001B0228F6D98BE74A6949
:100988002A4B7AB101221A60FFF710FF244D044662
:100998006B6F9E073FF51FAFFFF708FF001B02288C
:1009A800F6D978E71A60FFF701FF1D4D04466B6F13
:1009B80098077FF510AFFFF7F9FE001B0228F6D95C
:1009C80069E7FFF7F3FE401B02287FF61BAF62E7DB
:1009D800052B04D1236F43F0040323671BE7226F21
:1009E80022F001022267226F22F004022267002B04
:1009F8007FF415AFFFF7DAFE41F288360546236F1C
:100A08009F077FF516AFFFF7D1FE401BB042F6D91E
:100A180041E7FFF7CBFE001BB0427FF606AF3AE78F
:100A2800003802400070004000004742800E4742F4
:100A38002B4CA36803F00C03082B3FF415AF294D8A
:100A48000023022A2B603ED1FFF7B0FE064623683A
:100A5800980132D447F6C07797FAA7F74FF4403297
:100A6800B7FA87F792FAA2F24FF07060B2FA82F6FC
:100A780090FAA0F0D1E9073213434A6A02FA07F75D
:100A88008A6A5208013AB2403B431343CA6AB0FA31
:100A980080F002FA00F00343636001232B60FFF744
:100AA80085FE0F4C014623689A013FF5C6AEFFF755
:100AB8007DFE401A0228F6D9EDE6FFF777FE801B87
:100AC8000228C4D9E7E6FFF771FE014623689B01B7
:100AD8007FF5B3AEFFF76AFE401A0228F6D9DAE6C8
:100AE8000038024060004742F8B5494B1A6802F0E6
:100AF8000F028A4205461AD32A68900720D4D207E3
:100B080026D4434B1A6802F00F028A4270D828682C
:100B1800430775D410F0080011D03E4A296993683C
:100B280023F4604343EAC1039360002007E0CAB29C
:100B38001A701B6803F00F038B42DDD00120F8BD4B
:100B48003448AC68836823F0F00323438360D6E716
:100B58006A68304B012A1DD11B6813F4003FEDD0A1
:100B68002C4CA36823F003031343A360FFF71EFE76
:100B78006B68012B064641F2883715D1A36803F04C
:100B88000C03042BBDD0FFF711FE801BB842F5D92A
:100B98000320D4E7901E01281B6802D813F0007FB9
:100BA800DDE713F0020FDAE7022B0AD1A36803F09E
:100BB8000C03082BA5D0FFF7F9FD801BB842F5D927
:100BC800E6E7032B0FD1A36803F00C030C2B98D096
:100BD800FFF7ECFD801BB842F5D9D9E7FFF7E6FD32
:100BE800801BB842D4D8A36813F00C0FF6D188E75D
:100BF800CAB21A701B6803F00F038B429ED186E7B6
:100C08000449EB688A6822F4E0521A438A6081E753
:100C1800003C0240003802402DE9F04F6E4ADFF8F0
:100C2800C081DFF8C09185B000230C6801279F4080
:100C380007EA040537EA040440F0B9804C6824F058
:100C4800100ABAF1020F16D14FEAD30E00EB8E0E3E
:100C580003F0070BDEF820604FEA8B0B4FF00F0C08
:100C68000CFA0BFC26EA0C0C0E6906FA0BF646EA9F
:100C78000C06CEF82060D0F800B04FEA430E4FF0D3
:100C8800030C0CFA0EFC6FEA0C062BEA0C0B04F0B2
:100C9800030C0CFA0EFC0AF1FF3A4CEA0B0CBAF101
:100CA800010F0196C0F800C015D8D0F808C006EAB0
:100CB8000C0CCE6806FA0EFA4AEA0C0CC0F808C00A
:100CC800D0F804C02CEA0707C4F3001C0CFA03FC94
:100CD8004CEA07074760C768019E37408E6806FAE6
:100CE8000EF63E43C660E60061D54FF0000BCDF826
:100CF8000CB0D8F84470394E47F48047C8F84470AF
:100D0800D8F8447007F480470397039F23F003073C
:100D180007F1804707F59C3703F0030ED7F808A0C2
:100D28004FEA8E0E4FF00F0C0CFA0EFCB0422AEA76
:100D38000C0C43D006F58066B04241D006F58066BB
:100D4800B0423FD006F58066B0423DD006F58066D9
:100D5800B0423BD048453BD006F50066B04239D09A
:100D680006F58066B0420CBF0726082606FA0EF67E
:100D780046EA0C06BE601668EF4314F4803F0CBFC9
:100D88003E402E431660566814F4003F0CBF3E40A8
:100D98002E435660966814F4801F0CBF3E402E43C5
:100DA8009660D668A40254BF3E402E43D6600133F5
:100DB800102B7FF43AAF05B0BDE8F08F5E46D5E75B
:100DC8000126D3E70226D1E70326CFE70426CDE79D
:100DD8000526CBE70626C9E7003C01400000024093
:100DE80000380240001402400AB1816170470904CA
:100DF800FBE7000070B5002866D090F8393003F0A2
:100E0800FF020BB980F838200168C2680569C46917
:100E1800242380F83930CB6823F40053CB600B6966
:100E280023F4405313430B618368CA682B43456915
:100E380022F416422B4322F00C0223431343CB60C7
:100E48004B69826923F440731343B4F5004F4B6137
:100E58001E4A43684FF0640528D15B00B2FBF3F2E9
:100E6800B2FBF5F605FB1622D3003233B3FBF5F3DC
:100E780003F007025B0002EB061203F4F873134455
:100E88008B600B6923F490430B614B6923F02A03B1
:100E98004B61CB6843F40053CB6020220023C3632B
:100EA80080F8392080F83A20184670BD9B00B2FBC4
:100EB800F3F2B2FBF5F605FB16231B013233B3FB45
:100EC800F5F303EB0613DBE70120EEE70080FC0AED
:100ED80090F83930202B3ED100293AD0002A38D05A
:100EE80090F83830012B36D0012380F838300023B1
:100EF800C363212380F8393003688284C284C28C9A
:100F080092B252B91A685206FCD5202380F83930BB
:100F1800002380F8383018467047C28C013A92B2E4
:100F2800C2848268B2F5805F0CD11A681206FCD5BB
:100F38000A88C2F308025A6002690AB90231DEE778
:100F48000131DCE71A681206FCD511F8012B5A604A
:100F5800D5E7012070470220704710B590F83A3065
:100F6800202B44D1002940D0002A3ED090F83830B8
:100F7800012B3CD0012380F838300023C36322239F
:100F880080F83A308285C285C38D9BB233B920225E
:100F980080F83A2080F83830184610BDC38D0268B2
:100FA800013B9BB2C3858368B3F5805F11D1136899
:100FB8009C06FCD50369526833B90B46C2F3080294
:100FC80023F8022B1946DFE70B46D2B223F8012B90
:100FD800F8E713689B06FCD5046952684B1C0CB9EA
:100FE8000A70EFE702F07F02FAE70120D5E7022056
:100FF800D3E70000002103E00B4B5B58435004315A
:101008000A480B4B42189A42F6D30A4A02E00023D8
:1010180013600432084B9A42F9D3AFF30080FFF70C
:1010280013F9FFF713FAFEE79C10000800000020F0
:10103800300400203004002064050020FEE7000092
:10104800024B13B10248FFF7DFB8704700000000F9
:101058001D020008F8B500BFF8BC08BC9E467047E2
:0C106800F8B500BFF8BC08BC9E467047FD
:1010740030313233343536373839414243444546CA
:0C10840008000020746F75636800000015
:0810900049100008F1010008FD
:04109800C901000882
:10109C00080000200000000000000000F402002006
:1010AC005C030020C40300200000000000000000CE
:1010BC000000000000000000000000000000000024
:1010CC000000000000000000000000000000000014
:1010DC000000000000000000000000000000000004
:1010EC0000000000000000000000000000000000F4
:1010FC0000000000000000000000000000000000E4
:10110C0000000000000000000000000000000000D3
:10111C0000000000000000000000000000000000C3
:10112C0000000000000000000000000000000000B3
:10113C0000000000000000000000000000000000A3
:10114C0001000000000000000E33CDAB34126DE640
:10115C00ECDE05000B0000000000000000000000A9
:10116C000000000000000000000000000000000073
:10117C000000000000000000000000000000000063
:10118C000000000000000000000000000000000053
:10119C000000000000000000000000000000000043
:0400000508000FFDE3
:00000001FF
